:020000040800F2
:10000000D023002045010008214B0008234B0008A5
:10001000274B00082B4B00082F4B00080000000066
:10002000000000000000000000000000334B00084A
:10003000354B000800000000374B0008394B000822
:100040005F0100085F0100085F0100085F01000810
:100050005F0100085F0100085F0100085F01000800
:100060005F0100085F0100085F0100085F010008F0
:100070005F0100085F0100085F0100085F010008E0
:100080005F0100085F0100085F0100085F010008D0
:100090005F0100085F0100085F0100085F010008C0
:1000A0005F0100085F0100085F0100085F010008B0
:1000B000A94700085F0100085F0100085F01000810
:1000C0005F0100085F0100085F0100085F01000890
:1000D0005F010008495E00085F0100085F01000839
:1000E0005F0100085F0100085F0100085F01000870
:1000F0005F0100085F0100085F0100085F01000860
:100100005F0100085F0100085F0100085F0100084F
:100110005F0100085F0100085F0100085F0100083F
:100120005F0100085F0100085F0100085F0100082F
:10013000DFF80CD007F05EFB004800478D46000852
:10014000D02300200648804706480047FEE7FEE728
:10015000FEE7FEE7FEE7FEE7FEE7FEE7FEE7FEE777
:1001600047020008310100080CB500200190009002
:100170006C48006840F480306A49086000BF6948F4
:10018000006800F4003000900198401C0190009835
:1001900018B90198B0F5A06FF1D16248006800F479
:1001A000003010B10120009001E000200090009884
:1001B000012843D15C48006840F010005A490860AB
:1001C0000846006820F0030008600846006840F018
:1001D0000200086053484068524948600846406839
:1001E00048600846406840F48060486008464068BF
:1001F00020F47C1048600846406840F4E8104860ED
:100200000846006840F08070086000BF45480068FC
:1002100000F000700028F9D04248406820F0030048
:10022000404948600846406840F00200486000BF0E
:100230003C48406800F00C000828F9D10CBD10B50E
:10024000FFF792FF10BD10B53648006840F001007E
:1002500034490860084640683449084031494860DC
:1002600008460068324908402E4908600846006880
:1002700020F4802008600846406820F4FE004860B2
:100280004FF41F008860FFF7DAFF4FF00060294944
:10029000086010BD10B5002100200022214B5B68D2
:1002A00003F00C0121B1042906D0082928D107E068
:1002B000214B224C236027E01F4B204C236023E07E
:1002C000184B5B6803F47010164B5B6803F48032C4
:1002D000022303EB904022B9194B4343174C236090
:1002E0000DE0104B5B6803F4003323B1144B434320
:1002F000124C236003E0104B4343104C236003E097
:100300000D4B0E4C236000BF00BF064B5B68C3F370
:1003100003130C4CE15C094B1B68CB40074C23607A
:1003200010BD000000100240002002400000FFF855
:10033000FFFFF6FE08ED00E000127A00000000204A
:1003400000093D000400002031490143314A116099
:10035000704770B5002100230F22C47804B32D4CE0
:10036000246804F4E064C4F5E064210AC1F10403E4
:10037000CA40447804FA03F1847814402143090107
:10038000254C0678A155047804F01F050124AC40E3
:1003900005786D11AD0005F1E025C5F8004109E0D3
:1003A000047804F01F050124AC401C4D067876113A
:1003B00045F8264070BD1A4A0A400243154B1B1FE0
:1003C0001A60704739B1134A121D12680243114B6B
:1003D0001B1D1A6006E00F4A121D126882430D4B66
:1003E0001B1D1A607047042808D14FF0E0210969ED
:1003F00041F004014FF0E022116107E04FF0E021ED
:10040000096921F004014FF0E022116170470000FA
:100410000000FA050CED00E000E400E080E100E0FF
:1004200080FFFF1F01460020FE4A106800F03800E0
:10043000084310607047FB49096821F00801F94A38
:10044000116011460968014311607047F549096858
:1004500021F01001F34A116011460968014311604F
:100460007047F148EF494860F04848607047EE48EF
:10047000EC494860ED4848607047EA48006940F040
:100480008000E84908617047E648006940F0800054
:10049000E449086170470420E249C96801F001019C
:1004A00009B101200EE0DF49C96801F0040109B17A
:1004B000022007E0DB49C96801F0100109B10320FF
:1004C00000E00420704700B502460423FFF7E3FF75
:1004D000034603E0FFF7DFFF0346521E012B01D165
:1004E000002AF7D102B90523184600BD30B50446ED
:1004F00004254FF43020FFF7E6FF0546042D17D101
:10050000C848006940F00200C649086108464461D5
:10051000006940F0400008614FF43020FFF7D3FF3E
:100520000546C048006941F6FD710840BD490861B3
:10053000284630BD10B504244FF43020FFF7C3FF28
:100540000446042C16D1B748006940F00400B549B0
:1005500008610846006940F0400008614FF430200F
:10056000FFF7B1FF0446AF48006941F6FB71084050
:10057000AC490861204610BD00B502460423FFF7D0
:100580008AFF034603E0FFF786FF0346521E012B56
:1005900001D1002AF7D102B90523184600BD10B5D4
:1005A00004244FF43020FFF7E7FF0446042C16D153
:1005B0009C48006940F004009A49086108460069B7
:1005C00040F0400008614FF43020FFF7D5FF0446AB
:1005D0009448006941F6FB71084092490861204641
:1005E00010BD00208F49C96901F0020109B1012045
:1005F00000E00020704730B5A5250424FFF7F1FF87
:1006000000B100254FF43020FFF75DFF0446042CB5
:100610003AD18548834988608448886008460069E3
:1006200040F0200008610846006940F04000086181
:100630004FF43020FFF747FF0446042C1BD17948C4
:10064000006941F6DF710840764908610846006993
:1006500040F01000086176480580E002FFF733FFA4
:100660000446052C10D06F48006941F6EF71084030
:100670006C49086108E0052C06D06A48006941F61B
:10068000EF71084067490861204630BD78B50646DD
:100690000C46042500200090E802FFF714FF0546F1
:1006A000042D24D15F48006940F001005D490861D4
:1006B0003480E802FFF707FF0546042D10D1B01C77
:1006C0000090200C00990880E802FFF7FCFE054628
:1006D0005448006941F6FE7108405249086106E03D
:1006E0005048006941F6FE7108404E4908612846AD
:1006F00078BD70B504460D460426F002FFF7E3FE10
:100700000646042E11D14748006940F001004549D2
:1007100008612580F002FFF7D6FE064641480069D1
:1007200041F6FE7108403F490861304670BD70B522
:1007300005460E460424E002FFF7C5FE0446042CDD
:1007400017D13948374988603848886008460069B9
:1007500040F0100008612E80E002FFF7B4FE04466E
:10076000052C06D02F48006941F6EF7108402D494D
:100770000861204670BD2DE9F04304464FF6FF7630
:100780003746B046B1460425E443E6B2C4F3072732
:10079000C4F307484FEA1469E802FFF794FE0546E0
:1007A000042D49D120481F498860204888600846A8
:1007B000006940F010000861FF2E06D01C48083088
:1007C0000680E802FFF77FFE0546042D08D1FF2FC3
:1007D00006D017480A300780E802FFF774FE054686
:1007E000042D0AD1B8F1FF0F07D011480C30A0F842
:1007F0000080E802FFF767FE0546042D0AD1B9F133
:10080000FF0F07D00A480E30A0F80090E802FFF76B
:100810005AFE0546052D0FD00248006941F6EF71DA
:10082000084007E00020024023016745AB89EFCD77
:1008300000F8FF1F664908612846BDE8F08330B51F
:10084000054604244FF43020FFF73DFE0446042CF7
:1008500041D160485E4988605F4888600846006909
:1008600040F0200008610846006940F0400008613F
:100870004FF43020FFF727FE0446042C22D15448C1
:10088000006941F6DF710840514908610846006976
:1008900040F0100008611DB100205049088002E0BE
:1008A000A5204E4908804FF43020FFF70CFE044687
:1008B000052C10D04648006941F6EF7108404449C4
:1008C000086108E0052C06D04148006941F6DF7157
:1008D00008403F490861204630BDF0B505460E4648
:1008E000174604243B483A4988603B488860E00248
:1008F000FFF7E9FD0446042C19D13548006940F0A2
:1009000010003349086147F0F80030432843334969
:10091000891C0880E002FFF7D6FD0446052C06D0AE
:100920002B48006941F6EF710840294908612046CB
:10093000F0BD2748C069800870472548006A7047A5
:1009400000202349096801F0200109B1012000E0DD
:100950000020704729B11E4A126902431C4B1A61DC
:1009600004E01B4A12698243194B1A617047014621
:100970000020012908D1164AD26902F001020AB109
:10098000012008E0002006E0114AD2680A400AB1BE
:10099000012000E0002070470D49C8607047042026
:1009A0000B49C96801F0010109B101200EE00849B5
:1009B000C96801F0040109B1022007E00449C968CF
:1009C00001F0100109B1032000E00420704700008D
:1009D0000020024023016745AB89EFCD00F8FF1FDF
:1009E00010B50446CC48844208D10121042000F00F
:1009F0002FFD0021042000F02BFD46E0C748844273
:100A000008D10121082000F023FD0021082000F07A
:100A10001FFD3AE0C248844208D10121102000F0B5
:100A200017FD0021102000F013FD2EE0BD48844288
:100A300008D10121202000F00BFD0021202000F032
:100A400007FD22E0B848844208D10121402000F08F
:100A5000FFFC0021402000F0FBFC16E0B34884427C
:100A600008D10121802000F0F3FC0021802000F05B
:100A7000EFFC0AE0AE48844207D10121801500F066
:100A8000E7FC0021A01500F0E3FC10BD10B501212A
:100A9000084600F0DDFC0021012000F0D9FC10BD6B
:100AA0002DE9F04102460025002600200023002405
:100AB000002791F803C00CF00F0591F803C00CF06B
:100AC000100CBCF1000F03D091F802C04CEA0505F0
:100AD00091F800C0BCF1000F31D0146800202BE069
:100AE0004FF0010C0CFA00F3B1F800C00CEA030659
:100AF0009E4220D183004FF00F0C0CFA03F7BC4349
:100B000005FA03FC4CEA040491F803C0BCF1280F79
:100B100006D14FF0010C0CFA00FCC2F814C00AE038
:100B200091F803C0BCF1480F05D14FF0010C0CFA4D
:100B300000FCC2F810C0401C0828D1D31460B1F8E2
:100B400000C0BCF1FF0F34DD546800202EE000F13E
:100B5000080C4FF0010808FA0CF3B1F800C00CEAD9
:100B600003069E4221D183004FF00F0C0CFA03F7CD
:100B7000BC4305FA03FC4CEA040491F803C0BCF141
:100B8000280F05D100F1080C08FA0CF8C2F81480FF
:100B900091F803C0BCF1480F07D100F1080C4FF0E9
:100BA000010808FA0CF8C2F81080401C0828CED3BF
:100BB0005460BDE8F0814FF6FF7101800221817021
:100BC0000421C17070470246002093680B400BB1AE
:100BD000012000E0002070470146886880B270471D
:100BE00002460020D3680B400BB1012000E000203A
:100BF00070470146C86880B2704701617047416123
:100C000070470AB1016100E041617047C1607047FF
:100C10004FF480320A438261816182618269826914
:100C2000704702460020434B18684FF68073184007
:100C300040EA021008433F4B186070473E49C861C4
:100C40007047F0B50A46002300240021002500F07B
:100C50000046B6F1004F02D1364EF16901E0354E43
:100C60007168C0F3034583B200F44016B6F5401F27
:100C700008D121F070612F4E766826F070662D4FF6
:100C80007E6012E000F48016B6F5801F06D10326C0
:100C900006FA05F4A14341F0706106E0460D360105
:100CA00003FA06F6B14341F0706122B1460D3601F8
:100CB00003FA06F6314300F00046B6F1004F02D1C8
:100CC0001C4EF16101E01B4E7160F0BD30B5002299
:100CD0008B071C0F0F2303FA04F2164B08338C10FA
:100CE00053F824309343134C08348D1044F82530C6
:100CF00023468C1053F824308C07240F00FA04F498
:100D000023430C4C08348D1044F8253030BD0A497B
:100D1000DC3108607047000000080140000C014011
:100D2000001001400014014000180140001C014067
:100D300000200140000001400000204210B50446A0
:100D4000F748844209D10121480500F08EFB0021BB
:100D50004FF4001000F089FB08E00121880500F045
:100D600084FB00214FF4800000F07FFB10BD2DE9D3
:100D7000F04385B004460D460026B1460427DFF84F
:100D8000A483A6884FF6C0700640684600F0D9FAE2
:100D9000DDF80880E448B8FBF0F01FFA80F946EA75
:100DA0000906A68020884FF6FE71084020800026A4
:100DB000DE49286888420CD828684000B8FBF0F06B
:100DC00087B2042F00DA04273E4309F10100208492
:100DD00027E0E8884BF6FF71884206D1286800EBCF
:100DE0004000B8FBF0F087B209E0286800EBC001D2
:100DF00001EB0010B8FBF0F087B247F48047C7F36F
:100E00000B0008B947F0010747F4004006434FF4D0
:100E1000967009FB00F04FF47A7190FBF1F0401CE2
:100E20002084A683208840F00100208026884FF689
:100E3000F5300640A8886989084306432680A889BA
:100E400029890843208105B0BDE8F08341F288314B
:100E50000160002181804BF6FF71C180002101817A
:100E600041814FF480418181704721B1028842F075
:100E70000102028004E002884FF6FE731A400280ED
:100E8000704721B1828842F40062828004E0828847
:100E90004FF2FF731A408280704721B1828842F47A
:100EA0008052828004E082884EF6FF731A4082806E
:100EB000704721B1028842F48072028004E0028807
:100EC0004FF6FF631A400280704721B1028842F456
:100ED0000072028004E002884FF6FF531A4002803D
:100EE000704721B1028842F48062028004E00288E7
:100EF0004FF6FF331A40028070470A46002181896D
:100F00004FF60173194002F0FE03194381817047C7
:100F100021B1828942F00102828104E082894FF688
:100F2000FE731A408281704721B1028842F040026C
:100F3000028004E002884FF6BF731A4002807047B7
:100F40001AB183880B43838002E083888B438380BC
:100F50007047018270470146088AC0B2704712B1DB
:100F600041F0010102E04FF6FE7319400182704723
:100F700008B50246002000900092009808440090B6
:100F80000098008808BD21B1028842F40042028026
:100F900003E00288C2F30E0202807047B1F5006FD1
:100FA00004D1028842F40062028004E002884FF219
:100FB000FF731A4002807047B1F5005F04D10288C8
:100FC00042F40052028004E002884DF6FF731A409A
:100FD0000280704721B1028842F48052028004E00E
:100FE00002884EF6FF731A4002807047B1F5006F19
:100FF00004D1028842F40062028004E002884FF2C9
:10100000FF731A400280704721B1028842F020022B
:10101000028004E002884FF6DF731A4002807047B6
:101020000146088B0012704721B1028842F010027D
:10103000028004E002884FF6EF731A400280704786
:1010400021B9028842F08002028004E002884FF653
:101050007F731A4002807047B1F5804F05D0828BB4
:101060004BF6FF731A40828303E0828B42F4804286
:101070008283704770B502460024002500230020BB
:10108000958A138B1B0445EA030626F07F4404EA85
:1010900001068E4201D1012000E0002070BD10B594
:1010A00001460020002300228B8A0A8B120443EAA7
:1010B000020424F07F4010BD0CB50246002000233E
:1010C0000193009300920B0F019321F07F41019B4C
:1010D0001BB1009B1433009303E0090C009B1833F1
:1010E0000093009B1B680B400BB1012000E0002027
:1010F0000CBD002221F07F42D3438382704730B57C
:10110000024600200023948801F0E06504EA1543BC
:1011100021F07F41948A0C4054B14BB1012008E08A
:101120000054004000127A0040420F00A0860100E7
:10113000002030BD002221F07F42D34383827047DC
:10114000DF48006840F00100DD490860084640685B
:10115000DC490840DA49486008460068DA49084036
:10116000D74908600846006820F4802008600846D7
:10117000406820F4FE0048604FF41F00886070470C
:10118000CF49096821F48031CD4A116011460968C0
:1011900021F480211160B0F5803F03D0B0F5802F9D
:1011A0000ED106E0C649096841F48031C44A116095
:1011B00007E0C349096841F4A021C14A116000E079
:1011C00000BF00BF704710B5014600220023002079
:1011D0004A11012A02D1BA4C236806E0022A02D140
:1011E000B74C236A01E0B64C636A01F01F02012488
:1011F00094401C400CB1012000E0002010BD38B527
:10120000002000900024002500BF3120FFF7DBFF05
:1012100005460098401C00900098B0F5A06F01D0E2
:10122000002DF2D03120FFF7CEFF08B1012400E0FD
:101230000024204638BD01460020A14A106820F055
:10124000F80040EAC10010607047A049086070478C
:10125000024600209A4B586820F47C1042EA0103B1
:101260001843974B58607047984908667047014685
:101270000020934A506820F00300084350607047F4
:101280008F48406800F00C007047014600208C4AEF
:10129000506820F0F000084350607047014600207D
:1012A000874A506820F4E060084350607047014668
:1012B0000020834A506820F4605040EAC10050602A
:1012C000704729B17E4A527A02437D4B5A7204E03C
:1012D0007B4A527A82437A4B5A7270477B49D831A3
:1012E0000860704701460020754A506820F440406D
:1012F0000843506070470021714A20321170704AD3
:1013000082F82010012802D004280AD104E001212B
:101310006B4A2032117005E00521694A20321170B4
:1013200000E000BF00BF704769490860704764492A
:10133000096A0143624A116270476549443908608D
:10134000704730B500210022002400235C4D6D68F9
:1013500005F00C0121B1042905D0082923D105E0AD
:101360005C4D056022E05B4D05601FE0544D6D68EB
:1013700005F47012524D6D6805F48034022505EBBA
:1013800092421CB9544D554305600BE04C4D6D68BD
:1013900005F400351DB1504D5543056002E04D4D3B
:1013A0005543056002E04B4D056000BF00BF444D52
:1013B0006D6805F0F0010909484D6B5C0568DD407A
:1013C00045603F4D6D6805F4E061090A434D6B5C73
:1013D0004568DD4085603A4D6D6805F46051C90A85
:1013E0003E4D6B5C4568DD40C560354D6D6805F46C
:1013F0004041890B3A4D6B5CC568B5FBF3F505615F
:1014000030BD29B12E4A526902432D4B5A6104E086
:101410002B4A526982432A4B5A61704729B1284AA4
:1014200092690243264B9A6104E0254A92698243FD
:10143000234B9A61704729B1214AD2690243204B5C
:10144000DA6104E01E4AD26982431D4BDA617047BB
:1014500029B11B4AD2680243194BDA6004E0184AEA
:10146000D2688243164BDA60704729B1144A126978
:101470000243134B1A6104E0114A12698243104B74
:101480001A61704712494039086070470F49C864B3
:1014900070470B49C87170470948406A40F0807036
:1014A00007494862704701460020054A92680A4091
:1014B0000AB1012000E0002070470149887270479E
:1014C000001002400000FFF8FFFFF6FE000042425D
:1014D0008004424200127A0000093D0014000020FE
:1014E0002400002010B50446FE48844208D10121A2
:1014F000C014FFF7ADFF0021E014FFF7A9FFC4E01F
:10150000B4F1804F08D101210846FFF7AEFF00215A
:101510000120FFF7AAFFB8E0F348844208D1012177
:101520000220FFF7A2FF00210220FFF79EFFACE0A0
:10153000EE48844208D101210420FFF796FF0021E4
:101540000420FFF792FFA0E0E948844208D101217E
:101550000820FFF78AFF00210820FFF786FF94E0AC
:10156000E448844208D101211020FFF77EFF0021CA
:101570001020FFF77AFF88E0DF48844208D101217C
:101580002020FFF772FF00212020FFF76EFF7CE094
:10159000DA48844208D101214014FFF759FF0021A5
:1015A0006014FFF755FF70E0D548844209D101214E
:1015B000C804FFF74DFF00214FF40020FFF748FF5C
:1015C00063E0D048844209D101210805FFF740FFBC
:1015D00000214FF48010FFF73BFF56E0CA488442D9
:1015E00009D101214805FFF733FF00214FF4001016
:1015F000FFF72EFF49E0C548844208D10121402071
:10160000FFF733FF00214020FFF72FFF3DE0C048E8
:10161000844208D101218020FFF727FF002180208C
:10162000FFF723FF31E0BB48844208D10121801538
:10163000FFF71BFF0021A015FFF717FF25E0B648B5
:10164000844209D101210804FFF702FF00214FF471
:101650008030FFF7FDFE18E0B048844209D1012137
:101660004804FFF7F5FE00214FF40030FFF7F0FECD
:101670000BE0AB48844208D101218804FFF7E8FE63
:1016800000214FF48020FFF7E3FE10BD0022028806
:10169000944B98420ED0994B98420BD0B0F1804FAA
:1016A00008D0914B984205D0904B984202D0904B75
:1016B000984204D14FF68F731A404B881A438D4BD2
:1016C000984207D08C4B984204D04FF6FF431A4003
:1016D000CB881A4302808B8883850B880385814BD6
:1016E00098420BD0854B984208D08B4B984205D03E
:1016F0008A4B984202D08A4B984201D10B7A0386DA
:1017000001238382704770B5002400220023058CDA
:101710004FF6FE7635400584028C8388048B4FF6A5
:101720008F752C40B51E2C400D882C43751E2A4009
:101730000D892A434D882A436A4DA8420BD06F4D2C
:10174000A84208D0744DA84205D0744DA84202D0DA
:10175000734DA84213D14FF6F7752A404D892A439D
:101760004FF6FB752A408D882A434FF6FF652B40C4
:101770004FF6FF552B408D892B43CD892B4383801A
:101780000483CD888586028470BD70B50024002254
:101790000023058C4FF6EF7635400584028C838854
:1017A000048B48F6FF752C404FF6FF452C400D8802
:1017B0004FF6FF7606EA05252C434FF6DF752A40E3
:1017C0000D8906EA05152A434D8806EA05152A43C0
:1017D000444DA84202D0494DA8421DD14FF67F7515
:1017E0002A404D894FF6FF7606EA05152A434FF643
:1017F000BF752A408D8806EA05152A434FF6FF3546
:101800002B404FF2FF752B408D8906EA85052B434F
:10181000CD8906EA85052B4383800483CD8805871F
:10182000028470BD70B5002400220023058C4FF6A1
:10183000FF6635400584028C8388848B4FF68F7554
:101840002C404FF6FC752C400D882C434FF6FF556D
:101850002A400D894FF6FF7606EA05252A434D8872
:1018600006EA05252A431F4DA84202D0234DA8426F
:101870001DD14FF2FF752A404D894FF6FF7606EADB
:1018800005252A434FF6FF352A408D8806EA0525AF
:101890002A434EF6FF752B404DF6FF752B408D8980
:1018A00006EA05152B43CD8906EA05152B438380EF
:1018B0008483CD888587028470BD70B500220023A3
:1018C0000024058C4EF6FF7635400584038C848811
:1018D000828B48F6FF752A404FF6FF452A400D8857
:1018E00020E00000002C01400004004000080040FF
:1018F000000C004000100040001400400034014083
:10190000004C0140005001400054014000180040CC
:10191000001C004000200040004001400044014005
:10192000004801404FF6FF7606EA05252A434DF6AA
:10193000FF752B400D8906EA05352B434D8806EAD5
:1019400005352B43FA4DA84202D0FA4DA84208D1E2
:101950004BF6FF752C408D894FF6FF7606EA85150C
:101960002C4384808283CD88A0F84050038470BDCE
:10197000828B4FF2FF331A408283828B4FF6FF73C4
:1019800003EA01231A4382837047F0B50C461546DB
:10199000002200210026078C4EF6FF7C07EA0C0788
:1019A0000784828B018C4FF6FF7707EA043640F6F6
:1019B000FF473A404FF6FF7707EA05273A434FF6CD
:1019C000FF7707EA03373A43D94FB8420ED0D94FD1
:1019D000B8420BD0B0F1804F08D0D74FB84205D0F5
:1019E000D64FB84202D0D64FB84206D14DF6FF7757
:1019F000394046F48057394305E047F6FF573940F0
:101A000044F48057394382830184F0BD828B4FF6C2
:101A1000F3731A408283828B0A4382837047F0B546
:101A20000C461546002200210026078C4FF6FF6C5D
:101A300007EA0C070784828B018C4FF6FF7707EAD1
:101A400004264FF60C773A404FF6FF7707EA031764
:101A50002F433A43B64FB8420ED0B64FB8420BD0E0
:101A6000B0F1804F08D0B44FB84205D0B34FB84260
:101A700002D0B34FB84206D14FF6FF57394046F473
:101A80008077394305E04FF2FF57394044F48077BF
:101A9000394382830184F0BD028B4FF2FF331A4039
:101AA0000283028B4FF6FF7303EA01231A4302837A
:101AB0007047F0B50C461546002200210026078C21
:101AC0004FF6EF7C07EA0C070784028B018C4FF678
:101AD000FF7707EA041640F6FF473A404FF6FF77D4
:101AE00007EA03373A434FF6FF7707EA05273A43F9
:101AF0008F4FB8420ED08F4FB8420BD0B0F1804F0D
:101B000008D08D4FB84205D08C4FB84202D08C4FD0
:101B1000B84206D14FF6DF77394046F01007394317
:101B200005E04FF65F77394044F0100739430283F0
:101B30000184F0BD028B4FF6F3731A400283028BCF
:101B40000A4302837047F0B50C4615460022002177
:101B5000068C4FF6FE773E400684028B018C4FF6D2
:101B60000C7632407E1C06EA03162E433243704E3A
:101B7000B0420ED06F4EB0420BD0B0F1804F08D0C3
:101B80006D4EB04205D06D4EB04202D06C4EB042A8
:101B900006D14FF6FD76314044F00106314305E0B1
:101BA0004FF6F576314044F001063143028301845B
:101BB000F0BD70B505460C465D4885420ED05D48C7
:101BC00085420BD0B5F1804F08D05B48854205D0E7
:101BD0005A48854202D05A48854200D100E000BFF1
:101BE000208850B92389A28861882846FFF7ABFF77
:101BF000E1882846FFF79EFF25E0208804280AD1C7
:101C00002389A28861882846FFF753FFE188284688
:101C1000FFF742FF17E0208808280AD12389A2880D
:101C200061882846FFF7FBFEE1882846FFF7EEFEB5
:101C300009E02389A28861882846FFF7A6FEE1888B
:101C40002846FFF795FE70BD2DE9F04105460C468C
:101C500000260127608808B9022600E00026A08837
:101C6000012801D1022700E001272088A0B923899B
:101C7000A28861882846FFF766FFE1882846FFF7BB
:101C800059FF23893A4631462846FFF712FFE1887B
:101C90002846FFF701FF13E02389A28861882846C0
:101CA000FFF707FFE1882846FFF7F6FE23893A464B
:101CB00031462846FFF747FFE1882846FFF73AFFFD
:101CC000BDE8F0810A884B881A438B881A43CB8879
:101CD0001A430B891A434B891A438B891A43A0F87C
:101CE000442070474FF6FF71818000210180C18040
:101CF0004180017270470021018041808180C18054
:101D0000018141818181C181704700210180418031
:101D1000012181800021C180018170470021018063
:101D200041808180C18001814181818170470000B3
:101D3000002C014000340140000400400008004035
:101D4000000C004021B1028842F00102028004E050
:101D500002884FF6FE731A400280704731B1B0F826
:101D6000442042F40042A0F8442005E0B0F84420AA
:101D7000C2F30E02A0F8442070471AB183890B43C6
:101D8000838102E083898B4383817047818270471E
:101D900041EA0203A0F8483070471AB183890B4327
:101DA000838102E083898B438381704701894FF6E9
:101DB000F8721140018170470A46002101894FF6EF
:101DC0008F73194011430181704730B504460D46A9
:101DD00029462046FFF7F0FF208940F007002081C8
:101DE00030BD2DE9F04104460D4616461F46602DD4
:101DF00006D13B46012231462046FFF75AFE05E058
:101E00003B46012231462046FFF79DFE29462046EB
:101E1000FFF7D2FF208940F007002081BDE8F08164
:101E200030B50C4600210189C9B24FF6FF7505EAAD
:101E30000325154325432943018130BD2DE9F04198
:101E400005460E4617469846002443463A46314614
:101E50002846FFF7E5FF2C894FF6F870044044F060
:101E600007044FF68F70044044F070042C81BDE8E5
:101E7000F081F0B504460D4616461F463B463246F5
:101E800029462046FFF7CCFF208940F4804020817E
:101E9000F0BD0185828270470A46002101884FF615
:101EA0008F731940114301807047F0B50C461546F9
:101EB0001E460021002200230189028B038C4FF66D
:101EC000F877394021434FF6FC473A4040F201177A
:101ED0003A434FF6DD773B404FF6FF7707EA0617A8
:101EE0002F433B43018102830384F0BD0A46002156
:101EF000018B4FF68F7319401143018370470A46D7
:101F00000021018B48F6FF7319404FF6FF7303EA77
:101F100002231943018370470A460021818B4FF643
:101F20008F7319401143818370470A460021818BCA
:101F300048F6FF7319404FF6FF7303EA0223194373
:101F40008183704721B1028842F08002028004E060
:101F500002884FF67F731A400280704721B1828851
:101F600042F00402828004E082884FF6FB731A403C
:101F70008280704721B1828842F00802828004E0AA
:101F800082884FF6F7731A408280704721B18288A9
:101F900042F00102828004E082884FF6FE731A400C
:101FA000828070470A460021018B4FF6F773194073
:101FB0001143018370470A460021018B4FF2FF73E2
:101FC00019404FF6FF7303EA022319430183704758
:101FD0000A460021818B4FF6F77319401143818324
:101FE00070470A460021818B4FF2FF7319404FF66C
:101FF000FF7303EA02231943818370470A460021D5
:10200000018B4FF6FB7319401143018370470A4659
:102010000021018B4FF6FF3319404FF6FF7303EA9F
:1020200002231943018370470A460021818B4FF632
:10203000FB7319401143818370470A460021818B4D
:102040004FF6FF3319404FF6FF7303EA022319439B
:10205000818370470A460021018B4FF67F73194038
:102060001143018370470A460021018BC1F30E0121
:102070004FF6FF7303EA02231943018370470A46B0
:102080000021818B4FF67F73194011438183704784
:102090000A460021818BC1F30E014FF6FF7303EA5C
:1020A00002231943818370470A460021018C4FF6B1
:1020B000FD7319401143018470470A460021018CC9
:1020C0004FF6F77319401143018470470A46002107
:1020D000018C4FF6DF7319404FF6FF7303EA0213CA
:1020E0001943018470470A460021018C4FF67F7323
:1020F00019404FF6FF7303EA021319430184704736
:102100000A460021018C4FF6FF5319404FF6FF732A
:1021100003EA02231943018470470A460021018C17
:102120004FF2FF7319404FF6FF7303EA022319437E
:10213000018470470A460021018C4DF6FF73194057
:102140004FF6FF7303EA023319430184704730B539
:10215000002301248C40A3B2048C9C430484048C8F
:1021600002FA01F5ADB22C43048430BD30B5002332
:1021700004248C40A3B2048C9C430484048C02FA93
:1021800001F5ADB22C43048430BD70B50346002088
:1021900000241846183001258D40ACB21D8CA54393
:1021A0001D8409B1082909D100EB6100056825F0FB
:1021B000700505600568154305600EE00D1FC5F349
:1021C0004E052844056825F4E045056005684FF68E
:1021D000FF7606EA02263543056070BD21B102880C
:1021E00042F00202028004E002884FF6FD731A40BA
:1021F0000280704721B1028842F00402028004E0AC
:1022000002884FF6FB731A400280704721B1828822
:1022100042F08002828004E082884FF67F731A4089
:102220008280704702884FF6F7731A400280028856
:102230000A430280704782884FF68F731A4082806B
:1022400082880A438280704702894FF6F8731A40E9
:10225000028102890A430281704702894FF67F7327
:102260001A40028102890A430281704781847047C3
:1022700081857047818670470187704781877047E5
:10228000A0F84010704702884FF6FF431A400280C2
:1022900002880A43028070470146888E70470146D3
:1022A000088F70470146888F70470146B1F840009B
:1022B00070470146888C70470146088D704702467A
:1022C0000020138A0B400BB1012000E00020704772
:1022D000CA430282704730B5024600200023002422
:1022E000158A05EA0103958905EA010413B10CB1C9
:1022F000012000E0002030BDCA4302827047000088
:1023000010B50446FB48844209D101218803FFF738
:102310009FF800214FF48040FFF79AF832E0F6482A
:10232000844209D101214804FFF79FF800214FF4AE
:102330000030FFF79AF825E0F048844209D10121E6
:102340008804FFF792F800214FF48020FFF78DF802
:1023500018E0EB48844209D10121C804FFF785F851
:1023600000214FF40020FFF780F80BE0E54884429D
:1023700008D101210805FFF778F800214FF48010FB
:10238000FFF773F810BD2DE9F04786B005460E46FD
:102390000024A24600BFA1460027B08900B100BFBB
:1023A0002F462C8A4CF6FF700440F08804432C82A0
:1023B000AC894EF6F3100440B08831890843718926
:1023C00008430443AC81AC8A4FF6FF400440B08917
:1023D0000443AC8201A8FEF7B4FFC648874202D18D
:1023E000DDF810A001E0DDF80CA0A88900F40040A1
:1023F00040B10AEBCA0000EB0A1031684900B0FB9B
:10240000F1F807E00AEBCA0000EB0A103168890016
:10241000B0FBF1F86420B8FBF0F00401200964215E
:1024200001FB1089A88900F4004040B1322000EB84
:10243000C900B0FBF1F000F00700044308E03220CF
:1024400000EB09106421B0FBF1F000F00F00044331
:102450002C8106B0BDE8F0874FF4165101600021D1
:102460008180C18001810C214181002181817047DF
:1024700010B502460020108A4FF2FF0318400B8867
:102480004C8823438C882343CC88234318431082F1
:1024900010BD0021018041808180C180704721B141
:1024A000828942F40052828104E082894DF6FF73F2
:1024B0001A4082817047F0B50346002400260025AB
:1024C000002040F66A17B94200D100BF1846C1F398
:1024D000421401F01F06012707FA06F5012C01D16D
:1024E0000C3004E0022C01D1103000E014301AB19D
:1024F00007682F43076002E00768AF430760F0BD3D
:102500001AB1838A0B43838202E0838A8B438382DE
:102510007047028A4FF6F0731A400282028A0A4319
:102520000282704782894FF2FF731A40828182894A
:102530000A438281704721B1828942F0020282817E
:1025400004E082894FF6FD731A4082817047028A47
:102550004FF6DF731A400282028A0A4302827047F2
:1025600021B1028A42F48042028204E0028A4BF6E0
:10257000FF731A4002827047C1F3080282807047DD
:1025800001468888C0F308007047818941F0010145
:1025900081817047028BD2B20283028B42EA012210
:1025A00002837047028B02F47F420283028B0A434C
:1025B0000283704721B1828A42F02002828204E0C5
:1025C000828A4FF6DF731A408282704721B1828A75
:1025D00042F01002828204E0828A4FF6EF731A40C2
:1025E0008282704721B1828A42F00802828204E02E
:1025F000828A4FF6F7731A408282704721B182892E
:1026000042F40042828103E08289C2F30E02828199
:10261000704721B1828A42F40062828204E0828A99
:102620004FF2FF731A4082827047828A4FF6FB7323
:102630001A408282828A0A438282704721B1828A4A
:1026400042F00202828204E0828A4FF6FD731A4051
:102650008282704702460020B1F5007F00D100BFA2
:1026600013880B400BB1012000E00020704701F4FB
:102670000072B2F5007F00D100BFCA4302807047EC
:1026800070B50246002400230025002040F66A169B
:10269000B14200D100BFC1F3421501F01F03012672
:1026A00006FA03F3012D02D19689334006E0022D8C
:1026B00002D1168A334001E0968A33400C1201267B
:1026C00006FA04F41688344013B10CB1012000E07E
:1026D000002070BD10B50022002340F66A14A1420C
:1026E00000D100BF0A1201249440A3B2DC4304804D
:1026F00010BD000000380140004400400048004088
:10270000004C004000500040F8B500250024F94876
:10271000007810B9F84802F022FFF748C08800F5A9
:10272000FA6086B24FF4C87196FBF1F201FB1261B8
:1027300061B1642196FBF1F201FB126151B1F11715
:1027400006EB91718910A6EB810119B90120EB49C3
:10275000087002E00020E9490870E648007808287F
:102760007EDAE748007800287AD1E24800782146EE
:10277000621CD4B2C9060090080E02233222002146
:1027800002F005FBDB4800782146621CD4B2C90682
:102790000090080E02233022002102F0F8FAD648F9
:1027A000C0880A2190FBF1F03030C7B2D1480078E0
:1027B0002146621CD4B2C9060090080E02233A4694
:1027C000002102F0E4FACC48C0880A2190FBF1F223
:1027D00001FB12003030C7B2C64800782146621CA7
:1027E000D4B2C9060090080E02233A46002102F036
:1027F000CEFA00202146621CD4B2C9060090080E11
:1028000002232D22002102F0C2FABB4800790A21DE
:1028100090FBF1F03030C7B2B6480078401EC0B22D
:102820002146621CD4B2C9060090080E02233A4623
:10283000002102F0ACFAB04800790A2190FBF1F2D5
:1028400001FB12003030C7B2AA480078401EC0B267
:102850002146621CD4B2C9060090080E022300E093
:1028600047E13A46002102F092FA00202146621C1C
:10287000D4B2C9060090080E02232D22002102F0D6
:1028800086FA9D48C0780A2190FBF1F03030C7B23B
:1028900098480078801EC0B22146621CD4B2C90696
:1028A0000090080E02233A46002102F070FA924886
:1028B000C0780A2190FBF1F201FB12003030C7B260
:1028C0008C480078801EC0B22146621CD4B2C90672
:1028D0000090080E02233A46002102F058FA85497A
:1028E0000978C91ECBB2582101EB0511C8B20022EC
:1028F000114602F0EAFA80484079082861D2DFE800
:1029000000F06004111E2B3846537A490978C91E1D
:10291000CBB2682101EB0511C8B20122002102F0FF
:10292000D4FA4EE073490978C91ECBB2682101EB95
:102930000511C8B20222002102F0C7FA41E06D4938
:102940000978C91ECBB2682101EB0511C8B2032278
:10295000002102F0BAFA34E066490978C91ECBB208
:10296000682101EB0511C8B20422002102F0ADFA82
:1029700027E060490978C91ECBB2691DCAB2682137
:1029800001EB0511C8B2002102F09FFA19E0594984
:102990000978C91ECBB2682101EB0511C8B2062225
:1029A000002102F092FA0CE052490978C91ECBB21C
:1029B000682101EB0511C8B20722002102F085FA57
:1029C00000BF00BF00244C4880780A2190FBF1F042
:1029D0003030C7B247480078001FC0B22246641C9E
:1029E0000090D00002233A46194602F0D0F942483E
:1029F00080780A2190FBF1F201FB12003030C7B25F
:102A00003C480078001FC0B22246641C0090D000F1
:102A100002233A46194602F0BAF900202246641C05
:102A20000090D00002233A22194602F0B0F9324851
:102A300040780A2190FBF1F03030C7B22D48007881
:102A4000401FC0B22246641C0090D00002233A46C8
:102A5000194602F09CF9284840780A2190FBF1F2CF
:102A600001FB12003030C7B222480078401FC0B2CC
:102A70002246641C0090D00002233A46194602F018
:102A800086F900202246641CD1060090080E02231D
:102A90003A22194602F07BF9174800780A2190FB88
:102AA000F1F03030C7B213480078801FC0B2224620
:102AB000641CD1060090080E02233A46194602F023
:102AC00066F90D4800780A2190FBF1F201FB120033
:102AD0003030C7B207480078801FC0B22146621C60
:102AE000D4B2C9060090080E02233A46194602F0F5
:102AF0004EF9F8BD280000209A0800202900002087
:102B00006200002038B5002403F041FFFE48007841
:102B100000287DD1FD480068A0B3FC480068FC494E
:102B20000988884205DAF9480068FA490988884224
:102B300029DCF9480078012825D100202146621CB3
:102B4000D4B2C9060090080E02232022062102F00A
:102B50001EF900202146621CD4B2C9060090080E5E
:102B600002232022062102F012F900202146621CD5
:102B7000D4B2C9060090080E02232022062102F0DA
:102B800006F948E0FFE7E14800684FF47A7190FBEE
:102B9000F1F201FB1200642190FBF1F03030C5B27C
:102BA00000202146621CD4B2C9060090080E022300
:102BB0002A46062102F0EBF8D4480068642190FB15
:102BC000F1F201FB12000A2190FBF1F03030C5B2A6
:102BD00000202146621CD4B2C9060090080E0223D0
:102BE0002A46062102F0D3F8C84800680A2190FB63
:102BF000F1F201FB12003030C5B200202146621C08
:102C0000D4B2C9060090080E02232A46062100E02D
:102C10007AE002F0BCF80624C048006870B3BF48F0
:102C20000068BF490988884228DCBB480078012831
:102C300024D100202146621CD4B2C9060090080E9F
:102C400002232022062102F0A2F800202146621C65
:102C5000D4B2C9060090080E02232022062102F0F9
:102C600096F800202146621CD4B2C9060090080ED6
:102C700002232022062102F08AF845E0A7480068D6
:102C80004FF47A7190FBF1F201FB1200642190FB8A
:102C9000F1F03030C5B200202146621CD4B2C90622
:102CA0000090080E02232A46062102F070F89B4885
:102CB0000068642190FBF1F201FB12000A2190FBF5
:102CC000F1F03030C5B200202146621CD4B2C906F2
:102CD0000090080E02232A46062102F058F88F4879
:102CE00000680A2190FBF1F201FB12003030C5B2FE
:102CF00000202146621CD4B2C9060090080E0223AF
:102D00002A46062102F043F838BD38B50A2402F0FD
:102D1000E7FD844908807C480078002841D10846B6
:102D2000B0F9000080490988884206DD7D48B0F985
:102D300000007E490988884234DB77480078012802
:102D400030D100202146621CD4B2C9060090080E82
:102D500002232022194602F01AF800202146621CA4
:102D6000D4B2C9060090080E02232022194602F0B0
:102D70000EF800202146621CD4B2C9060090080E4D
:102D800002232022194602F002F800202146621C8C
:102D9000D4B2C9060090080E02232022194601F081
:102DA000F6FF4EE05F48B0F90000642190FBF1F0BF
:102DB0003030C5B200202146621CD4B2C906009052
:102DC000080E02232A46194601F0E1FF5548B0F9E2
:102DD0000000642190FBF1F201FB12000A2190FB3C
:102DE000F1F03030C5B200202146621CD4B2C906D1
:102DF0000090080E02232A46194601F0C8FF002061
:102E00002146621CD4B2C9060090080E02232E226D
:102E1000194601F0BCFF4348B0F900000A2190FBBD
:102E2000F1F201FB12003030C5B200202146621CD5
:102E3000D4B2C9060090080E02232A46194601F0B2
:102E4000A6FF38BD00B585B039480088ADF8000050
:102E500038480088ADF8020037480088ADF8040013
:102E60002C480088ADF8060029480088ADF8080015
:102E70002B480088ADF80A002B480088ADF80C00FC
:102E80002A480088ADF80E002C4800684FF6FF7104
:102E900001EA2040ADF810002848008880B2ADF863
:102EA00012000A226946264804F02BF8322002F06C
:102EB00006F905B000BD00B585B00A226946204874
:102EC00004F00EF8BDF8000019490880BDF80200B2
:102ED00018490880BDF8040017490880BDF80600AD
:102EE0000C490880BDF8080009490880BDF80A00AF
:102EF0000B490880BDF80C000B490880BDF80E0096
:102F00000A4908801EE00000620000207C000020CA
:102F100058000020560000206000002080000020A3
:102F20005A000020540000205E0000205C000020B9
:102F3000460000204C0000204E00002050000020E1
:102F400020040008BDF81200BDF8101040EA01404E
:102F5000FE49086005B000BD1CB505226946FC4865
:102F600003F0BEFF00208DF80500FAA1684604F0CA
:102F700055F848B90522F7A1F54803F0C2FF322001
:102F800002F09DF8FFF75EFFFFF795FFF34800881A
:102F9000B0F5967F03DCF148008800281BDA3C205E
:102FA000EF4908807820ED4908805020ED490880DD
:102FB00040F27510EC4908809620EC49088000200A
:102FC000EB490880EB4908802820EB4908804FF442
:102FD0007A70DE4908601CBDF8B500250B240A2371
:102FE000E64AE749E74802F072FEE5480068E6492C
:102FF0000860E4480068E54908600021E24800688C
:1030000004F0BCF92ED2E249DF48006804F0A2F8CF
:103010000646DF4904F0B2F924D80020DD490870E3
:10302000D34800884EF66021884204DAD0480088F0
:10303000401CCF490880CF4800884EF66021884266
:1030400004DACC480088401CCA490880D24800886D
:10305000C7490988884205D0C5480088CE490880FC
:10306000FFF7F0FECD480078002879D1C0480088ED
:1030700042F20F71884275DDBD480088491C90FB03
:10308000F1F03030C6B200202146621C94B2C9066D
:103090000090080E02233246062101F078FEB44863
:1030A000008842F2107190FBF1F201FB12004FF424
:1030B0007A7190FBF1F03030C6B200202146621CDC
:1030C00094B2C9060090080E02233246062101F090
:1030D0005EFEA74800884FF47A7190FBF1F201FB85
:1030E0001200642190FBF1F03030C6B2002021467E
:1030F000621C94B2C9060090080E022332460621D3
:1031000001F045FE9A480088642190FBF1F201FB32
:1031100012000A2190FBF1F03030C6B200202146A7
:10312000621C94B2C9060090080E022332460621A2
:1031300001F02DFE8E4800880A2190FBF1F201FB80
:1031400012003030C6B200202146621C94B2C9067B
:103150000090080E02233246062101F018FEC1E15C
:103160009DE1FFE782480088B0F57A7F6CDB0020A4
:103170002146621C94B2C9060090080E0223202248
:10318000062101F004FE7A48008842F2107190FB9B
:10319000F1F201FB12004FF47A7190FBF1F0303044
:1031A000C6B200202146621C94B2C9060090080EE7
:1031B00002233246062101F0EAFD6D4800884FF4F3
:1031C0007A7190FBF1F201FB1200642190FBF1F0A7
:1031D0003030C6B200202146621C94B2C90600906D
:1031E000080E02233246062101F0D1FD6048008816
:1031F000642190FBF1F201FB12000A2190FBF1F037
:103200003030C6B200202146621C94B2C90600903C
:10321000080E02233246062101F0B9FD5448008809
:103220000A2190FBF1F201FB12003030C6B20020FF
:103230002146621C94B2C9060090080E0223324651
:10324000062101F0A4FD4DE14948008863285EDDB8
:1032500000202146621C94B2C9060090080E022389
:103260002022062101F093FD00202146621C94B229
:10327000C9060090080E02232022062101F087FDD6
:103280003B4800884FF47A7190FBF1F201FB120089
:10329000642190FBF1F03030C6B200202146621C60
:1032A00094B2C9060090080E02233246062101F0AE
:1032B0006EFD2F480088642190FBF1F201FB1200A3
:1032C0000A2190FBF1F03030C6B200202146621C8A
:1032D00094B2C9060090080E02233246062101F07E
:1032E00056FD234800880A2190FBF1F201FB1200F1
:1032F0003030C6B200202146621C94B2C90600904C
:10330000080E02233246062101F041FDEAE018488A
:10331000008809287DDD00202146621C94B2C90680
:103320000090080E02232022062101F030FD00202B
:103330002146621C94B2C9060090080E0223202286
:10334000062101F024FD0A48008829E050000020F1
:1033500000040008464459445A0000005800002068
:10336000560000205A0000205C0000205E00002073
:10337000460000204C0000204E00002034000020B9
:10338000300000202C0000203800002040000020E9
:103390000000204144000020840000206200002042
:1033A000642190FBF1F201FB12000A2190FBF1F085
:1033B0003030C6B200202146621C94B2C90600908B
:1033C000080E02233246062101F0E1FCF94800888C
:1033D0000A2190FBF1F201FB12003030C6B200204E
:1033E0002146621C94B2C9060090080E02233246A0
:1033F000062101F0CCFC00202146621C94B2C906D3
:103400000090080E02232022062101F0C0FC69E092
:10341000FFE700202146621C94B2C9060090080E06
:1034200002232022062101F0B2FC00202146621C6A
:1034300094B2C9060090080E02232022062101F052
:10344000A6FCDC4800880A2190FBF1F201FB120087
:103450003030C6B200202146621C94B2C9060090EA
:10346000080E02233246062101F091FC002021467D
:10347000621C94B2C9060090080E02232022062185
:1034800001F085FC00202146621C94B2C906009020
:10349000080E02232022062101F079FC22E0C64812
:1034A0000088C64909884843642190FBF1F0C4496B
:1034B00008600846006803F0FDFE0646C14903F0B7
:1034C00049FE0546284603F03BFF064632460B46BA
:1034D000BDA1C04804F000FA0223BE4A19463020BC
:1034E00001F0A7FCF8BDF8B5BB48007800287DD1F5
:1034F000BA480078082803D0B848007809287CD159
:10350000B7480088642190FBF1F03030C4B2B34872
:103510000078C01FC0B20223224604210090302050
:1035200001F035FCAE480088642190FBF1F201FB0C
:1035300012000A2190FBF1F03030C4B2A7480078A5
:10354000C01FC0B20223224604210090382001F09F
:103550001EFCA34800880A2190FBF1F201FB120037
:103560003030C4B29D480078C01FC0B2022322464A
:1035700004210090402001F00AFC9A480088642150
:1035800090FBF1F03030C4B2944800780838C0B2F3
:103590000223224606210090302001F0F8FB9148DA
:1035A0000088642190FBF1F201FB12000A2190FBDC
:1035B000F1F03030C4B2894800780838C0B2022334
:1035C000224606210090382001F0E1FB8548008862
:1035D0000A2190FBF1F201FB12003030C4B27F48A7
:1035E00000780838C0B20223224601E002E104E07C
:1035F00006210090402001F0CAFB784800780A2894
:103600003CD179480088642190FBF1F03030C4B29D
:10361000724800780938C0B2022322460421009083
:10362000302001F0B4FB70480088642190FBF1F277
:1036300001FB12000A2190FBF1F03030C4B2674860
:1036400000780938C0B202232246042100903820B5
:1036500001F09DFB644800880A2190FBF1F201FB18
:1036600012003030C4B25D4800780938C0B202237D
:10367000224604210090402001F089FB5748007841
:103680000B2803D0554800780C287DD15748008876
:10369000642190FBF1F03030C4B2504800780A3811
:1036A000C0B20223224604210090302001F06FFBBB
:1036B0004E480088642190FBF1F201FB12000A21C0
:1036C00090FBF1F03030C4B2444800780A38C0B200
:1036D0000223224604210090382001F058FB3F4885
:1036E00000780A38C0B202232E2204210090402024
:1036F00001F04DFB3D4800880A2190FBF1F201FBEF
:1037000012003030C4B2354800780A38C0B2022303
:10371000224604210090482001F039FB34480088FB
:10372000642190FBF1F03030C4B22C4800780B38A3
:10373000C0B20223224606210090302001F027FB70
:103740002B480088642190FBF1F201FB12000A2152
:1037500090FBF1F03030C4B2204800780B38C0B292
:103760000223224606210090382001F010FB1B485E
:1037700000780B38C0B202232E2206210090402090
:1037800001F005FB1A4800E061E000880A2190FB87
:10379000F1F201FB12003030C4B2104800780B384F
:1037A000C0B20223224606210090482001F0EFFA21
:1037B0004DE00000460000204C0000204E0000209C
:1037C0004800002000007A4425362E33666B6D20B9
:1037D00000000000000900206200002028000020F6
:1037E00056000020580000205A0000205E000020F3
:1037F0005C000020FD48007804280BD1FC480288BA
:10380000FCA1FE4804F068F80223FC4A04213020A1
:1038100001F00FFBF5480078052818D1F84800683A
:1038200003F048FD0746F74903F094FC044603F013
:1038300087FD05462A460B46AFF27401EF4804F0B7
:103840004BF80223ED4A0421232001F0F2FAF8BDDF
:10385000F8B5002500260027012001F09CFC054654
:10386000012D70D1E1480078401CE0490870E6481D
:10387000007801284DD10846007805281CDD00207D
:103880000870FFF7DFFA01F067FA00240AE004F19C
:103890002C01CAB22107080E0023022101F015FBFA
:1038A000601CC4B2022CF2DB002002233A2219462B
:1038B0000090202001F06BFACC480078042812D147
:1038C00001F04AFA00240CE004F12E01CAB22021D2
:1038D00001EB0411C8B20023194601F0F6FA601C8E
:1038E000C4B2042CF0DBC1480078052810D10024B4
:1038F0000CE004F13201CAB2102101EB0411C8B28C
:103900000023194601F0E1FA601CC4B2062CF0DB7A
:10391000F5E0B64800780C283FDD0020B349087078
:1039200001F01AFA00240AE004F11001CAB22107DA
:10393000080E0123042101F0C8FA601CC4B2022C55
:10394000F2DB00240DE0DCE004F11201CAB2302108
:1039500001EB0411C8B20123042101F0B6FA601C86
:10396000C4B2022CF0DB00240CE004F11401CAB252
:103970005F2101EB0411C8B20123042101F0A5FA73
:10398000601CC4B2022CF0DB0221702001F022FB8B
:10399000322001F094FBFFF755FA9448007808288C
:1039A00040D101F0D9F900240CE004F11601CAB2AB
:1039B000202101EB0411C8B20023194601F085FA59
:1039C000601CC4B2042CF0DB00240AE004F11A01EC
:1039D000CAB22107080E0023042101F076FA601C08
:1039E000C4B2022CF2DB00240AE004F11C01CAB2CA
:1039F0002107080E0023062101F067FA601CC4B2FB
:103A0000022CF2DB002002233A2204210090222023
:103A100001F0BDF9002002233A2206210090222065
:103A200001F0B5F9714800780A2825D100240CE08E
:103A300004F11E01CAB2202101EB0411C8B2002317
:103A4000194601F042FA601CC4B2042CF0DB0024D9
:103A50000AE004F11A01CAB22107080E002304216A
:103A600001F033FA601CC4B2022CF2DB022367A21D
:103A70000621002001F0DDF95C4800780B283ED1DA
:103A800000240CE004F12201CAB2202101EB041150
:103A9000C8B20023194601F018FA601CC4B2042C05
:103AA000F0DB00240AE004F11A01CAB22107080E73
:103AB0000023042101F009FA601CC4B2022CF2DBDD
:103AC00000240AE004F11C01CAB22107080E0023F9
:103AD000062101F0FAF9601CC4B2022CF2DB0020CE
:103AE00002233A2204210090222001F050F9002004
:103AF00002233A2206210090222001F048F9FFF724
:103B0000F2FC022D70D139480078B0BB3E480078F5
:103B1000012843D1424800880A2804DA4048008836
:103B2000401C3F490880F6B9012601203D49086044
:103B3000642001F0C4FA00203B49C1F8A4013B48CD
:103B40000078012809D100203849087038480078E9
:103B500000F0EF003649087005E03648007880F044
:103B60000100344908702E480088052816DB002023
:103B7000304908703049086008E00FE00120294909
:103B80000860781C87B2012001F099FAB7F57A7FB6
:103B9000F4DB002023490860214908801A48007896
:103BA000012879D11148007801280AD123480068FA
:103BB000401C2249086008460068642801D10020A2
:103BC00008600A48007802280AD11D480068401C95
:103BD0001B490860084600683C2801D100200860A5
:103BE0000248007803282DE08DE100002800002025
:103BF0004E0000202564636D202000000009002095
:103C00005000002000007A44620000202020202084
:103C10002020202020202020202020200000000024
:103C200086000020A48121420080214275000020EE
:103C30006100002074000020640000206800002063
:103C40006C0000200AD1FE480068401CFC49086056
:103C5000084600683C2801D100200860F948007837
:103C6000042808D1F8480088C82804DAF6480088F3
:103C7000401CF5490880F348007805280AD1F3482C
:103C8000006844F62061884204DAF04800680A308F
:103C9000EE49086034E1FFE7EA48007801280DD1D9
:103CA000EB48C088401CEA49C8800846C0886428A0
:103CB00001D10020C880E64801F0CEFBE148007841
:103CC00002283CD1E2480079401CE14908710846CD
:103CD00000790D2801D101200871DD480079042800
:103CE0000BD0DB480079062807D0D948007909288D
:103CF00003D0D74800790B2807D1D548C0781E28B3
:103D00001ADD0120D249C87016E0D1480079022896
:103D100012D1D0480078012807D1CD48C0781D289D
:103D20000ADD0120CA49C87006E0C948C0781C28CD
:103D300002DD0120C649C870C54801F08DFBC148AD
:103D4000007803284AD1C248C078401CC049C870D6
:103D500008460079012817D008460079032813D0B7
:103D60000846007905280FD00846007907280BD0AF
:103D700008460079082807D0084600790A2803D0A9
:103D8000084600790C2807D1B148C078202822D1F4
:103D90000120AF49C8701EE0AD480079022813D158
:103DA000AC480078012807D1A948C0781E2812D154
:103DB0000120A749C8700EE0A548C0781D280AD187
:103DC0000120A349C87006E0A148C0781F2802D18D
:103DD00001209F49C8709E4801F03EFB9948007839
:103DE00004280DD19A484079401C994948710846E9
:103DF0004079082801D101204871954801F02CFB39
:103E00009048007805280DD191488078401C904951
:103E1000887008468078182801D1002088708C4866
:103E200001F01AFB8748007806280DD188484078B1
:103E3000401C87494870084640783C2801D1002042
:103E40004870834801F008FB7E48007807280DD1B0
:103E50007F480078401C7E490870084600783C285E
:103E600001D1002008707A4801F0F6FA7548007810
:103E700008280BD17848008878490988401A012819
:103E800004DD76480088401C744908806D4800783D
:103E9000092809D170480088B0F5967F04DA6E4889
:103EA0000088401C6C490880664800780A2808D1C0
:103EB0006B480088C82804DA69480088401C6849B3
:103EC0000880604800780B280BD166480088664956
:103ED0000988401A012804DD63480088401C6249B3
:103EE0000880584800780C280AD15E48008840F2C3
:103EF000E731884204DA5B480088401C5949088051
:103F0000FFF7F1FA05E0012E03D100260020574902
:103F10000880032D7ED15648007801285ED149489B
:103F2000007898B953480078012805D100205149FC
:103F300008705149086009E04E48007830B9002007
:103F40004E4908604E490880FEF77CFF3D480078E6
:103F500001280AD14B48006810B96420494908601B
:103F600048480068401E47490860364800780228E3
:103F70000AD14548006810B93C20434908604248CE
:103F80000068401E404908602E48007803280AD186
:103F90002B48006810B93C2029490860284800686F
:103FA000401E2749086027480078042808D1264881
:103FB0000088002804DD24480088401E224908802B
:103FC00020480078052808D1204800680A2804DB2A
:103FD0001E4800680A381D49086057E119480078F2
:103FE00001280DD11A48C08810B964201849C8802A
:103FF0001748C088401E1649C880084601F02CFAB0
:1040000010480078022866D111480079012804D1AF
:104010000D2000E03CE10E4908710D480079401E7A
:104020000B49087108460079042832D00846007907
:1040300006282ED00846007909282AD0084625E00F
:1040400070000020280000204E00002050000020BA
:104050009A08002029000020580000205600002067
:104060005A0000205C0000205E0000208600002036
:104070006200002076000020A48121424800002038
:104080004C000020680000206C00002000790B2804
:1040900007D1FE48C0781E281ADD0120FB49C870F0
:1040A00016E0FA480079022812D1F9480078012870
:1040B00007D1F648C0781D280ADD0120F349C870F1
:1040C00006E0F248C0781C2802DD0120EF49C870E4
:1040D000EE4801F0C1F9EF480078032846D1EB48DB
:1040E000C078401EE949C87008460079012817D0F9
:1040F00008460079032813D00846007905280FD018
:104100000846007907280BD008460079082807D010
:10411000084600790A2803D0084600790C2806D101
:10412000DA48C078F8B91F20D849C8701BE0D748D2
:104130000079022811D1D6480078012806D1D34849
:10414000C07880B91D20D149C8700CE0CF48C07834
:1041500048B91C20CD49C87005E0CC48C07810B9DA
:104160001E20CA49C870C94801F076F9C9480078CC
:1041700004280ED1C5484079012802D10820C3493E
:104180004871C2484079401EC0494871084601F054
:1041900063F9C048007805280DD1BC48807810B973
:1041A0001820BA498870B9488078401EB74988708D
:1041B000084601F051F9B748007806280DD1B348F8
:1041C000407810B93C20B1494870B0484078401E52
:1041D000AE494870084601F03FF9AE48007807281C
:1041E0000DD1AA48007810B93C20A8490870A7480A
:1041F0000078401EA5490870084601F02DF9A54831
:104200000078082808D1A4480088002804DDA248C6
:104210000088401EA04908809E48007809280BD1DC
:104220009E4800889C490988401A012804DD9B4863
:104230000088401E99490880964800780A2808D1CD
:1042400097480088002804DD95480088401E94495E
:104250000880904800780B2808D1924800880028F0
:1042600004DD90480088401E8E4908808948007807
:104270000C280BD18C4800888A490988401A0128EB
:1042800004DD89480088401E87490880FFF72BF924
:10429000042D07D18548007820B900208449088082
:1042A000FEF7D0FD052D5FD17A480078F0BB7F483E
:1042B000007808B9012000E000207C49087000F077
:1042C0004BFD7A48007890BB00240AE004F110010D
:1042D000CAB22107080E0123042100F0F6FD601C7C
:1042E000C4B2022CF2DB00240CE004F11201CAB2C9
:1042F000302101EB0411C8B20123042100F0E5FDD7
:10430000601CC4B2022CF0DB00240CE004F11401A8
:10431000CAB25F2101EB0411C8B20123042100F0ED
:10432000D4FD601CC4B2022CF0DB01E01CE004E010
:104330000221702000F04EFE16E000240AE004F195
:104340002C01CAB22107080E0023022100F0BDFD96
:10435000601CC4B2022CF2DB002002233A22194670
:104360000090202000F013FDF8BD38B54F480078CC
:1043700001287CD147480078002879D14D48006851
:104380004FF4616190FBF1F00A2190FBF1F03030C5
:10439000C4B200200223224601460090202000F0F3
:1043A000F6FC444800684FF4616190FBF1F00A218B
:1043B00090FBF1F201FB12003030C4B20020022366
:1043C000224601460090282000F0E1FC0020022354
:1043D0003A2201460090302000F0D9FC35480068B0
:1043E0004FF4616190FBF1F201FB12003C2190FB64
:1043F000F1F00A2190FBF1F03030C4B2002002232A
:10440000224601460090382000F0C1FC294800688F
:104410004FF4616190FBF1F201FB12003C2190FB33
:10442000F1F00A2190FBF1F201FB12003030C4B22E
:1044300000200223224601460090402000F0A7FC05
:10444000002002233A2201460090482000F09FFC01
:10445000184800684FF4616190FBF1F201FB120013
:104460003C2190FBF1F201FB12000A2101E0C2E0C5
:104470003FE090FBF1F03030C4B20020022322462E
:1044800001460090502000F082FC15E09A080020C0
:10449000290000202800002056000020580000209D
:1044A0005A0000205E0000205C0000206200002016
:1044B0004600002064000020FE4800684FF461615F
:1044C00090FBF1F201FB12003C2190FBF1F201FBA9
:1044D00012000A2190FBF1F201FB12003030C4B24D
:1044E00000200223224601460090582000F04FFC95
:1044F00081E0F148007804287DDAF04800680A215C
:1045000090FBF1F03030C4B2EB4800780223224631
:1045100000210090202000F03AFCE84800680A21C1
:1045200090FBF1F201FB12003030C4B2E248007897
:104530000223224600210090282000F028FC0020C1
:1045400002233A2201460090302000F020FCDC4893
:1045500000680A2190FBF1F03030C4B2D6480078F0
:10456000401EC0B20223224600210090382000F0F5
:104570000EFCD34800680A2190FBF1F201FB120007
:104580003030C4B2CC480078401EC0B2022322466C
:1045900000210090402000F0FAFB002002233A2284
:1045A00001460090482000F0F2FBC64800680A214E
:1045B00090FBF1F03030C4B2BF480078801EC0B22A
:1045C0000223224600210090502000F0E0FBBD486D
:1045D00000680A2190FBF1F201FB12003030C4B2F6
:1045E000B5480078801EC0B2022322460021009008
:1045F000582000F0CCFB38BD70B50024B2480078DC
:10460000B2490978884240D0AF480078AF49087075
:10461000AF48007808B9012000E00020AC490870DC
:1046200008460078012830D1AA48B0F9000002F00D
:1046300041FE0546A84902F08DFD0446204602F0E1
:104640007FFE05462A460B46A4A003F035F90A2052
:1046500000F035FDA5480168A5A003F02DF90A205A
:1046600000F02DFDA5480168A5A003F025F90A205A
:1046700000F025FDA5480188A5A003F01DF90A203A
:1046800000F01DFDA5A003F017F970BD00F0DAFCE5
:104690004FF4A060FBF758FE00F050FA00F0D2FA99
:1046A00000F046FDC82000F00AFDFEF755FC00F0C2
:1046B00053FB01F0F6F8844800F0FAFF4FF416506F
:1046C00001F069FB642000F0FAFC00240AE004F128
:1046D0000801CAB22107080E0023022100F0F5FBF1
:1046E000601CC4B2082CF2DB774800F038FF00F001
:1046F00033FB00240AE004F11001CAB22107080EBE
:104700000123042100F0E1FB601CC4B2022CF2DBA7
:1047100000240CE004F11201CAB2302101EB0411B3
:10472000C8B20123042100F0D0FB601CC4B2022CEB
:10473000F0DB00240CE004F11401CAB25F2101EBAC
:104740000411C8B20123042100F0BFFB601CC4B2F5
:10475000022CF0DB0221702000F03CFC01F02AF971
:1047600001F02FFA02F0C2F840F2CF21632002F0EC
:1047700091F818E06A48007808B9012000E00020AC
:1047800067490870FFF764F8FDF7BEFFFFF7EDFD1E
:104790004948007828B9FEF7B8FAFEF71DFCFEF785
:1047A000B1F9FFF729FFE5E710B501218807FDF70B
:1047B00092FD00287CD001218807FDF79DFD594816
:1047C000007801281AD158480088401C56490880B2
:1047D00008460088012801D15449086052480088E1
:1047E000642802D10020514908604F480088B0F584
:1047F0007A7F06DB00204C49088002E000204A490D
:1048000008804B480088401C4949088008460088B9
:10481000B0F57A7F2DDB002008804648007801281B
:1048200024D1244800684449884204DA21480068B9
:10483000401C20490860214800684FF461614843EA
:104840001F490968C1EB011100EB81001D4909688E
:10485000084418490968884208D101203149087084
:104860003648007840F0100034490870012034497F
:10487000087034480088401C324908800846008887
:1048800064287DDB002008801848006858B117486C
:1048900000682D49098888426DDA144800682B4960
:1048A0000988884267DD1548006810B113484FE059
:1048B00015E152E06400002028000020680000207C
:1048C0006C000020700000209A0800208800002062
:1048D000890000205400002000002041CCE5CEC219
:1048E0003A25342E31664320200D0A007C0000203A
:1048F000D0C4C2CA3A256420200D0A0080000020DE
:10490000D1AAD1F53A256420200D0A0046000020E6
:10491000B2BDCAFD3A256420202020200D0A0000E7
:1049200060000020750000208A000020A481214240
:104930008C00002074000020F46F0500610000204E
:10494000770000208E000020580000205600002034
:1049500000686349098888420DDD6248B0F90000AB
:1049600061490988884206DA5E48B0F900005F496B
:10497000098888424FDC5E480068C0435D4900E01A
:1049800065E0C1F8A4015C48007800F00200A0B91D
:104990005A48006888B159480068594909888842CE
:1049A00005DA5648006857490988884205DC5248AC
:1049B000007840F00200504908704F48007800F03D
:1049C000040070B95048006858B14F480068444925
:1049D0000988884205DC4848007840F004004649D0
:1049E00008704548007800F0080080BB3D48B0F9E9
:1049F00000003D490988884206DA3A48B0F90000CB
:104A00003A49098888422CDC3B48007840F008008D
:104A10003949087025E03848007800F0F10036493F
:104A20000870002032490860384800683849096831
:104A300088420DDB30480078401140B92E4800789C
:104A400040F020002C49087001203249087008E02D
:104A50002948007800F0DF002749087000202D4920
:104A600008702D480088401C2B49088008460088A3
:104A7000322834DB002008802648007801282ED117
:104A800026480078401C254908700846007803280D
:104A900002D101201649086020480078062802D17A
:104AA0000020134908601D480078092802D1012020
:104AB0000F490860194800780C2802D100200C49E1
:104AC0000860164800780F2802D1012008490860C4
:104AD00012480078122802D100200549086010BD54
:104AE0005A000020540000205C0000205E000020DE
:104AF000A481214200802142610000207C0000202E
:104B000058000020560000208000002048000020AF
:104B1000500000207600002090000020920000202D
:104B2000704700BFFEE700BFFEE700BFFEE700BF23
:104B3000FEE77047704770477047000000B585B0CA
:104B400001214805FCF777FC01210820FCF766FCF1
:104B5000C020ADF8000003208DF802001C208DF865
:104B600003006946F748FBF79BFFF748FCF7E6F8B8
:104B70000020ADF808004BF6FF70ADF80A003020B9
:104B8000ADF80C004FF48060ADF80E000001ADF8F8
:104B90001000EE4801900121EB48FCF766F901A9ED
:104BA000E948FCF7E4F805B000BD70B504460D46D1
:104BB00000BF4FF40031E448FCF77EFA0028F8D13A
:104BC0000121E148FCF775F900BFE149DE48FCF737
:104BD00051FA0028F9D000227821DB48FCF7BFF910
:104BE00000BFDC49D848FCF745FA0028F9D0214637
:104BF000D548FCF7AEF900BFD649891CD248FCF76E
:104C000039FA0028F8D02946CF48FCF7A2F900BFAE
:104C1000D049891CCC48FCF72DFA0028F8D0012196
:104C2000C948FCF752F970BD10B504462146002072
:104C3000FFF7BBFF10BD10B5044621464020FFF72B
:104C4000B4FF10BD10B5642000F039FAAE20FFF7B4
:104C5000EBFF2020FFF7E8FF1020FFF7E5FFB02073
:104C6000FFF7E2FFC820FFF7DFFF0020FFF7DCFFC0
:104C70001020FFF7D9FF4020FFF7D6FF8120FFF774
:104C8000D3FFFF20FFF7D0FFA120FFF7CDFFA62025
:104C9000FFF7CAFFA820FFF7C7FF3F20FFF7C4FFB9
:104CA000A420FFF7C1FFD320FFF7BEFF0020FFF7CE
:104CB000BBFFD520FFF7B8FFF020FFF7B5FFD920E5
:104CC000FFF7B2FF2220FFF7AFFFDA20FFF7ACFFBC
:104CD0001220FFF7A9FFDB20FFF7A6FF2020FFF738
:104CE000A3FF8D20FFF7A0FF1420FFF79DFFAF204B
:104CF000FFF79AFF10BD70B504460D4605F1B001EF
:104D0000C8B2FFF791FF102141EA1410FFF78CFFA2
:104D100004F00F0141F00100FFF786FF70BD70B590
:104D20000646002415E004F1B001C8B2FFF77CFF8D
:104D30000020FFF779FF1020FFF776FF002504E041
:104D40003046FFF778FF681CC5B2802DF8DB601C89
:104D5000C4B2082CE7DB70BD10B50020FFF7DFFF01
:104D600010BD10B58D20FFF75FFF1420FFF75CFF2B
:104D7000AF20FFF759FF10BD10B58D20FFF754FF8E
:104D80001020FFF751FFAE20FFF74EFF10BD2DE9B9
:104D9000F04707460E4690469946DDF820A00024CD
:104DA0000025A8F12000C4B2B9F1020F3FD1782F3D
:104DB00002DD0027701CC6B231463846FFF79BFF64
:104DC000002513E0BAF1010F08D105EB0411624A86
:104DD000515CC943C8B2FFF72EFF05E005EB041193
:104DE0005D4A505CFFF727FF681CC5B2082DE9DB60
:104DF000701CC1B23846FFF77EFF002515E0BAF1FE
:104E0000010F09D105EB04110831534A515CC94324
:104E1000C8B2FFF710FF06E005EB041108314E4A57
:104E2000505CFFF708FF681CC5B2082DE7DBBDE842
:104E3000F0872DE9F04706460F4690469A46002532
:104E40000024A146BAF1010F03D0BAF1020F39D103
:104E500000E037E031E018F809002038C5B2782EBC
:104E600002DD0026781CC7B239463046FFF743FF03
:104E7000002407E004EB0511374A505CFFF7DBFE26
:104E8000601CC4B2082CF5DB781CC1B23046FFF7B9
:104E900032FF002408E004EB051108312E4A505C73
:104EA000FFF7C9FE601CC4B2082CF4DB06F1080051
:104EB000C6B209F1010000F0FF0918F80900002846
:104EC000C9D100BF00BFBDE8F0872DE9F04781469A
:104ED0000F4690461E4600254FEA4814394648467C
:104EE000FFF709FF00BF0FE0012E06D11B49095D46
:104EF000C943C8B2FFF79FFE03E01849085DFFF7FA
:104F00009AFE641C681CC5B2102DEDDB781CC1B282
:104F10004846FFF7F0FE00250FE0012E06D10F49AD
:104F2000095DC943C8B2FFF786FE03E00B49085D7F
:104F3000FFF781FE641C681CC5B2102DEDDBBDE8D7
:104F4000F0870000000C014000540040801A060069
:104F50000100030082000700BC81000893000020CC
:104F60002DE9F05F06460F4690461C46DDF828A066
:104F70004FF0000BE11704EB5171C910A4EBC10114
:104F800031B92046E11704EB5171C1F3C70506E0C2
:104F90002046E11704EB5171C910491CCDB23D46C2
:104FA00014E029463046FFF7A6FEB1460AE059460E
:104FB0000BF1010B1AF80100FFF73DFE09F10100AA
:104FC00000F0FF09C145F2DB681CC5B2A542E8DB71
:104FD000BDE8F09F70B586B006460D460024182245
:104FE00012A1684602F008F829463046FFF783FE12
:104FF00000BF05E01DF80400FFF71DFE601CC4B2F1
:105000000C2CF7DB681CC1B23046FFF774FE00249D
:1050100007E004F10C011DF80100FFF70CFE601C15
:10502000C4B20C2CF5DB06B070BD0000102810C017
:105030002010101020700000000000070810101051
:105040001008040010B56FF00400FBF7CCF93448E9
:1050500000683449B0FBF1F0334908700846007825
:1050600000EB4001C1EBC0104FF6FF7101EAC00038
:105070002E49088010BD01462B4A12784A434FF052
:10508000E0235A6100229A611A46126942F0010235
:105090001A6100BF4FF0E022106900F001021AB15E
:1050A00000F48032002AF5D04FF0E022126922F09D
:1050B00001024FF0E0231A6100229A617047014615
:1050C0001A4A12884A434FF0E0235A6100229A613B
:1050D0001A46126942F001021A6100BF4FF0E02245
:1050E000106900F001021AB100F48032002AF5D0F4
:1050F0004FF0E022126922F001024FF0E0231A6122
:1051000000229A61704730B50446002505E04FF44F
:105110007A70FFF7D4FF681CC5B2A542F7D330BD43
:105120000000002000127A00940800209608002059
:1051300008B501210C20FCF771F901215848FBF753
:1051400080FD4FF47040ADF8000048208DF803005A
:1051500069465448FBF7A4FC4FF48070ADF800009A
:1051600048208DF8030069464F48FBF799FC4FF43F
:105170000070ADF8000010208DF8030003208DF8BA
:10518000020069464748FBF78BFC4FF40071454825
:10519000FBF735FD08BD10B5044674B14FF48051DE
:1051A0004048FBF710FD40B14FF400413D48FBF78C
:1051B0000AFD10B101203D4908703C4800780028E4
:1051C0004BD04FF480513748FBF7FDFCB8B14FF49A
:1051D00000513448FBF7F7FC88B14FF48041314867
:1051E000FBF7F1FC58B14FF400412E48FBF7EBFC04
:1051F00028B14FF480712C48FBF7E5FC68BB4620D2
:10520000FFF75DFF0020294908704FF480512548C1
:10521000FBF7D9FC08B9012010BD4FF4005121481B
:10522000FBF7D1FC08B90220F6E74FF480411D4896
:10523000FBF7C9FC08B90320EEE74FF40041194819
:10524000FBF7C1FC08B90420E6E74FF4807116486B
:10525000FBF7B9FC10BB0520DEE74FF48051114885
:10526000FBF7B1FC012819D141030E48FBF7ABFC59
:10527000012813D181030B48FBF7A5FC01280DD1B0
:10528000C1030848FBF79FFC012807D1010206482B
:10529000FBF799FC012801D1044908700020BBE705
:1052A00000023000000C0140000801409808002076
:1052B00008B54FF48040ADF8000010208DF80300D1
:1052C00003208DF802006946F848FBF7E9FB08BDAA
:1052D00008B54FF48040ADF8000048208DF8030079
:1052E0006946F248FBF7DCFB08BD08B50121102038
:1052F000FCF794F84FF46040ADF8000010208DF8F2
:10530000030003208DF802006946E848FBF7C8FB5C
:105310004FF46041E548FBF772FC08BD70B50446E8
:105320000025FFF7C5FF00BF20E04FF40051DF4824
:10533000FBF765FC04F0010028B14FF48041DB4825
:10534000FBF75BFC04E04FF48041D848FBF757FCC7
:105350000220FFF790FE4FF40051D448FBF74DFCBC
:105360000220FFF788FE6410681CC5B2082DDCDB44
:1053700070BD70B505460C464FF40041CB48FBF7B5
:105380003EFC4FF40051C948FBF739FC0520FFF7FC
:1053900072FE4FF40041C548FBF72FFC0520FFF7D4
:1053A0006AFE2846FFF7BAFF2046FFF7B7FF4FF423
:1053B0000041BE48FBF723FC4FF40051BB48FBF70C
:1053C0001EFC70BD70B50646002500244FF4004158
:1053D000B648FBF714FC4FF40051B448FBF70FFC40
:1053E0000520FFF748FE4FF40041B048FBF705FCED
:1053F0000520FFF740FE3046FFF790FFFFF768FFFC
:1054000000BF1BE04FF40051A848FBF7F8FB022057
:10541000FFF731FE64104FF48041A448FBF7D3FB43
:10542000012801D144F080044FF400519F48FBF75C
:10543000E4FB0220FFF71FFE681CC5B2082DE1DB6C
:105440004FF400519948FBF7DAFB4FF400419748BD
:10545000FBF7D5FB204670BD70B5044600218E20B9
:10546000FFF787FF20780A2190FBF1F201FB120180
:1054700020780A2290FBF2F001EB0010C5B2294619
:105480008020FFF776FF60780A2190FBF1F201FBA4
:10549000120160780A2290FBF2F001EB0010C5B215
:1054A00029468220FFF765FFA0780A2190FBF1F2E0
:1054B00001FB1201A0780A2290FBF2F001EB001030
:1054C000C5B229468420FFF754FFE0780A2190FBFB
:1054D000F1F201FB1201E0780A2290FBF2F001EBFD
:1054E0000010C5B229468620FFF743FF20790A2124
:1054F00090FBF1F201FB120120790A2290FBF2F0FD
:1055000001EB0010C5B229468820FFF732FF607911
:105510000A2190FBF1F201FB120160790A2290FB53
:10552000F2F001EB0010C5B229468A20FFF721FFF7
:10553000E0880A2190FBF1F201FB1201E0880A22C7
:1055400090FBF2F001EB0010C5B229468C20FFF76A
:1055500010FF80218E20FFF70CFF002070BD2DE989
:10556000F04104468120FFF72DFF0546C01705EBEB
:1055700010700011A5EB00178120FFF723FF0646EE
:10558000C01706EB1070001100EB800007EB400025
:1055900020708320FFF716FF0546C01705EB10703B
:1055A0000011A5EB00178320FFF70CFF0646C0177C
:1055B00006EB1070001100EB800007EB40006070FC
:1055C0008520FFF7FFFE0546C01705EB10700011A0
:1055D000A5EB00178520FFF7F5FE0646C01706EB82
:1055E0001070001100EB800007EB4000A0708720D6
:1055F000FFF7E8FE0546C01705EB10700011A5EB9C
:1056000000178720FFF7DEFE0646C01706EB107076
:10561000001100EB800007EB4000E0708920FFF7ED
:10562000D1FE0546C01705EB10700011A5EB001761
:105630008920FFF7C7FE0646C01706EB1070001161
:1056400000EB800007EB400020718B20FFF7BAFED3
:105650000546C01705EB10700011A5EB00178B2055
:10566000FFF7B0FE0646C01706EB1070001100EB06
:10567000800007EB400060718D20FFF7A3FE054618
:10568000C01705EB10700011A5EB00178D20FFF778
:1056900099FE0646C01706EB1070001100EB800063
:1056A00007EB4000E0800020BDE8F08100100140E1
:1056B0002DE9F0410646FFF718FEC120FFF782FEF4
:1056C0000446C01704EB10700011A4EB0017C120B2
:1056D000FFF778FE0546C01705EB1070001100EBD0
:1056E000800007EB4000022802D10020BDE8F081D5
:1056F00000218E20FFF73DFE80218E20FFF739FE2E
:105700003046FFF7A9FE0020F0E7000010B59648EC
:10571000006820F47040944908600846006840F42E
:105720004050086000209149086040F2EE20FFF7E9
:10573000A2FC01208E49C1F8AC010F20FFF79BFCB1
:1057400010BD10B500248848006820F470408649D8
:1057500008600846006840F40040086004E0601CEF
:10576000C4B20120FFF787FC80488038006808B188
:10577000C82CF4DBC82C01DB012010BD002404E0A0
:10578000601CC4B20120FFF776FC784880380068BE
:1057900008B9F02CF4DBF02C01DB0120EDE7002050
:1057A000EBE710B57048006820F470406E4908605F
:1057B0000846006840F44050086000206B490860CB
:1057C0000220FFF758FC01206949C1F8AC01664886
:1057D000006820F47040644908600846006840F49E
:1057E000004008600C20FFF746FC604880380068E5
:1057F00008B1012400E000243220FFF73CFC2046E1
:1058000010BD70B50026012508E0FFF7CAFF044669
:10581000E00140EA6600C6B2681CC5B2082DF4DD9E
:10582000304670BD70B504464F48006820F47040A3
:105830004D4908600846006840F440500860012562
:1058400020E004F0010664106EB1002047490860B2
:105850000220FFF710FC01204549C1F8AC013C20B3
:10586000FFF709FC0CE00020404908603C20FFF7EE
:1058700002FC01203E49C1F8AC010220FFF7FBFB0E
:10588000681CC5B2082DDCDD70BD10B5FFF73EFF0A
:10589000FFF757FFCC20FFF7C5FF4420FFF7C2FFFB
:1058A00010BD08B501210420FBF7B8FD4FF40060DE
:1058B000ADF8000010208DF8030003208DF80200E1
:1058C00069462948001FFBF7EBF84FF400612648B2
:1058D000001FFBF792F9FFF719FFFFF732FF08BD32
:1058E0002DE9F84FFFF7D1FFFFF710FFFFF729FF72
:1058F000CC20FFF797FFBE20FFF794FFFFF781FF53
:105900008346FFF77EFF0446062C08DDE043C4B261
:105910006FEA0B0000F0FF0B4FF0000A01E04FF0C0
:10592000010AA1464FEA09200FFA80F909EB0B00A2
:105930000FFA80F9484601F0BDFC009001F000FD2F
:10594000074600220B4B01F043FC054601F0D9FC51
:105950000FFA80F9BAF1000F02D04846BDE8F88F7F
:10596000C9F1000000B2F9E704080140AC0121428E
:10597000000021420000E43F08B58020ADF800009F
:1059800003208DF8020010208DF8030069467E4840
:10599000FBF786F808BD08B58020ADF800000320AD
:1059A0008DF8020048208DF8030069467648FBF721
:1059B00077F808BD08B501210420FBF72FFDC020B2
:1059C000ADF8000010208DF8030003208DF80200D0
:1059D00069466D48FBF764F8C0216B48FBF70DF989
:1059E00008BD10B5FFF7C8FF012068490860684985
:1059F000C1F898010520FFF73EFB002063490860CD
:105A00000520FFF738FB00206149C1F8980110BD5F
:105A100010B5FFF7B1FF00205C49091F08605C4921
:105A2000C1F89C010520FFF726FB01205749091FFB
:105A300008605749C1F89C010520FFF71CFB10BD09
:105A400010B500205149091F0860FFF795FF00209D
:105A50004F49C1F89C010220FFF70DFB01204B4983
:105A6000091F08600520FFF706FB00204849C1F820
:105A7000980110BD10B500204449091F0860FFF7C8
:105A80007BFF01204249C1F89C010220FFF7F3FA95
:105A900001203E49091F08600220FFF7ECFA0020B0
:105AA0003B49C1F8980110BD10B50024FFF773FF02
:105AB000012036490860FFF7DEFA01203449C1F8B9
:105AC0009801FFF7D8FA07E0601CC4B2FA2C03DD96
:105AD000FFF79EFF012010BD2C4880380068002889
